{
  "contractName": "X3Token",
  "abi": [
    {
      "anonymous": false,
      "inputs": [
        {
          "indexed": false,
          "name": "duration",
          "type": "uint256"
        },
        {
          "indexed": false,
          "name": "strength",
          "type": "uint8"
        }
      ],
      "name": "VibratingEvent",
      "type": "event"
    },
    {
      "anonymous": false,
      "inputs": [
        {
          "indexed": true,
          "name": "owner",
          "type": "address"
        },
        {
          "indexed": true,
          "name": "spender",
          "type": "address"
        },
        {
          "indexed": false,
          "name": "value",
          "type": "uint256"
        }
      ],
      "name": "Approval",
      "type": "event"
    },
    {
      "anonymous": false,
      "inputs": [
        {
          "indexed": true,
          "name": "from",
          "type": "address"
        },
        {
          "indexed": true,
          "name": "to",
          "type": "address"
        },
        {
          "indexed": false,
          "name": "value",
          "type": "uint256"
        }
      ],
      "name": "Transfer",
      "type": "event"
    },
    {
      "constant": true,
      "inputs": [],
      "name": "totalSupply",
      "outputs": [
        {
          "name": "",
          "type": "uint256"
        }
      ],
      "payable": false,
      "stateMutability": "view",
      "type": "function"
    },
    {
      "constant": true,
      "inputs": [
        {
          "name": "who",
          "type": "address"
        }
      ],
      "name": "balanceOf",
      "outputs": [
        {
          "name": "",
          "type": "uint256"
        }
      ],
      "payable": false,
      "stateMutability": "view",
      "type": "function"
    },
    {
      "constant": false,
      "inputs": [
        {
          "name": "to",
          "type": "address"
        },
        {
          "name": "amount",
          "type": "uint256"
        }
      ],
      "name": "transfer",
      "outputs": [
        {
          "name": "",
          "type": "bool"
        }
      ],
      "payable": false,
      "stateMutability": "nonpayable",
      "type": "function"
    },
    {
      "constant": true,
      "inputs": [
        {
          "name": "owner",
          "type": "address"
        },
        {
          "name": "spender",
          "type": "address"
        }
      ],
      "name": "allowance",
      "outputs": [
        {
          "name": "",
          "type": "uint256"
        }
      ],
      "payable": false,
      "stateMutability": "view",
      "type": "function"
    },
    {
      "constant": false,
      "inputs": [
        {
          "name": "from",
          "type": "address"
        },
        {
          "name": "to",
          "type": "address"
        },
        {
          "name": "amount",
          "type": "uint256"
        }
      ],
      "name": "transferFrom",
      "outputs": [
        {
          "name": "",
          "type": "bool"
        }
      ],
      "payable": false,
      "stateMutability": "nonpayable",
      "type": "function"
    },
    {
      "constant": false,
      "inputs": [
        {
          "name": "spender",
          "type": "address"
        },
        {
          "name": "amount",
          "type": "uint256"
        }
      ],
      "name": "approve",
      "outputs": [
        {
          "name": "",
          "type": "bool"
        }
      ],
      "payable": false,
      "stateMutability": "nonpayable",
      "type": "function"
    },
    {
      "constant": true,
      "inputs": [
        {
          "name": "strength",
          "type": "uint256"
        }
      ],
      "name": "getPriceRange",
      "outputs": [
        {
          "name": "",
          "type": "uint256"
        }
      ],
      "payable": false,
      "stateMutability": "pure",
      "type": "function"
    },
    {
      "constant": false,
      "inputs": [
        {
          "name": "msec",
          "type": "uint256"
        },
        {
          "name": "strength",
          "type": "uint8"
        }
      ],
      "name": "sendHappiness",
      "outputs": [],
      "payable": false,
      "stateMutability": "nonpayable",
      "type": "function"
    },
    {
      "constant": false,
      "inputs": [],
      "name": "buyToken",
      "outputs": [],
      "payable": true,
      "stateMutability": "payable",
      "type": "function"
    },
    {
      "constant": false,
      "inputs": [],
      "name": "destroyTokens",
      "outputs": [],
      "payable": false,
      "stateMutability": "nonpayable",
      "type": "function"
    }
  ],
  "bytecode": "0x608060405264174876e800600055620f424060015534801561002057600080fd5b50610c8a806100306000396000f3006080604052600436106100a4576000357c0100000000000000000000000000000000000000000000000000000000900463ffffffff168063095ea7b3146100a957806318160ddd1461010e57806323b872dd1461013957806338b7b79e146101be57806370a08231146101ff5780638ac3273a14610256578063a482171914610290578063a9059cbb1461029a578063dd62ed3e146102ff578063fa98cd8814610376575b600080fd5b3480156100b557600080fd5b506100f4600480360381019080803573ffffffffffffffffffffffffffffffffffffffff1690602001909291908035906020019092919050505061038d565b604051808215151515815260200191505060405180910390f35b34801561011a57600080fd5b5061012361047f565b6040518082815260200191505060405180910390f35b34801561014557600080fd5b506101a4600480360381019080803573ffffffffffffffffffffffffffffffffffffffff169060200190929190803573ffffffffffffffffffffffffffffffffffffffff16906020019092919080359060200190929190505050610489565b604051808215151515815260200191505060405180910390f35b3480156101ca57600080fd5b506101e9600480360381019080803590602001909291905050506107d5565b6040518082815260200191505060405180910390f35b34801561020b57600080fd5b50610240600480360381019080803573ffffffffffffffffffffffffffffffffffffffff16906020019092919050505061084d565b6040518082815260200191505060405180910390f35b34801561026257600080fd5b5061028e60048036038101908080359060200190929190803560ff169060200190929190505050610896565b005b6102986109d5565b005b3480156102a657600080fd5b506102e5600480360381019080803573ffffffffffffffffffffffffffffffffffffffff16906020019092919080359060200190929190505050610a86565b604051808215151515815260200191505060405180910390f35b34801561030b57600080fd5b50610360600480360381019080803573ffffffffffffffffffffffffffffffffffffffff169060200190929190803573ffffffffffffffffffffffffffffffffffffffff169060200190929190505050610b45565b6040518082815260200191505060405180910390f35b34801561038257600080fd5b5061038b610bcc565b005b600081600360003373ffffffffffffffffffffffffffffffffffffffff1673ffffffffffffffffffffffffffffffffffffffff16815260200190815260200160002060008573ffffffffffffffffffffffffffffffffffffffff1673ffffffffffffffffffffffffffffffffffffffff168152602001908152602001600020819055508273ffffffffffffffffffffffffffffffffffffffff163373ffffffffffffffffffffffffffffffffffffffff167f8c5be1e5ebec7d5bd14f71427d1e84f3dd0314c0f7b2291e5b200ac8c7c3b925846040518082815260200191505060405180910390a36001905092915050565b6000600154905090565b60008073ffffffffffffffffffffffffffffffffffffffff168373ffffffffffffffffffffffffffffffffffffffff16141515156104c657600080fd5b6104d08484610b45565b82111515156104de57600080fd5b600260008573ffffffffffffffffffffffffffffffffffffffff1673ffffffffffffffffffffffffffffffffffffffff16815260200190815260200160002054821115151561052c57600080fd5b61057e82600260008773ffffffffffffffffffffffffffffffffffffffff1673ffffffffffffffffffffffffffffffffffffffff16815260200190815260200160002054610c1390919063ffffffff16565b600260008673ffffffffffffffffffffffffffffffffffffffff1673ffffffffffffffffffffffffffffffffffffffff1681526020019081526020016000208190555061061382600260008673ffffffffffffffffffffffffffffffffffffffff1673ffffffffffffffffffffffffffffffffffffffff16815260200190815260200160002054610c2c90919063ffffffff16565b600260008573ffffffffffffffffffffffffffffffffffffffff1673ffffffffffffffffffffffffffffffffffffffff168152602001908152602001600020819055506106e582600360008773ffffffffffffffffffffffffffffffffffffffff1673ffffffffffffffffffffffffffffffffffffffff16815260200190815260200160002060003373ffffffffffffffffffffffffffffffffffffffff1673ffffffffffffffffffffffffffffffffffffffff16815260200190815260200160002054610c1390919063ffffffff16565b600360008673ffffffffffffffffffffffffffffffffffffffff1673ffffffffffffffffffffffffffffffffffffffff16815260200190815260200160002060003373ffffffffffffffffffffffffffffffffffffffff1673ffffffffffffffffffffffffffffffffffffffff168152602001908152602001600020819055508273ffffffffffffffffffffffffffffffffffffffff168473ffffffffffffffffffffffffffffffffffffffff167fddf252ad1be2c89b69c2b068fc378daa952ba7f163c4a11628f55a4df523b3ef846040518082815260200191505060405180910390a3600190509392505050565b600060e68211156107e95760079050610848565b60d28211156107fb5760069050610848565b60be82111561080d5760059050610848565b60aa82111561081f5760049050610848565b60968211156108315760039050610848565b60828211156108435760029050610848565b600190505b919050565b6000600260008373ffffffffffffffffffffffffffffffffffffffff1673ffffffffffffffffffffffffffffffffffffffff168152602001908152602001600020549050919050565b60006108a48260ff166107d5565b83029050614e2083111515156108b957600080fd5b60828260ff16101515156108cc57600080fd5b60ff8260ff16111515156108df57600080fd5b806108e93361084d565b101515156108f657600080fd5b61094881600260003373ffffffffffffffffffffffffffffffffffffffff1673ffffffffffffffffffffffffffffffffffffffff16815260200190815260200160002054610c1390919063ffffffff16565b600260003373ffffffffffffffffffffffffffffffffffffffff1673ffffffffffffffffffffffffffffffffffffffff168152602001908152602001600020819055507f01ffed81164cd46725f5d4f4c6cfdf01e2c571810d23e4f00ba392b04eb26dce8383604051808381526020018260ff1660ff1681526020019250505060405180910390a1505050565b60006109ec60005434610c4890919063ffffffff16565b9050610a4081600260003373ffffffffffffffffffffffffffffffffffffffff1673ffffffffffffffffffffffffffffffffffffffff16815260200190815260200160002054610c2c90919063ffffffff16565b600260003373ffffffffffffffffffffffffffffffffffffffff1673ffffffffffffffffffffffffffffffffffffffff1681526020019081526020016000208190555050565b6000600260003373ffffffffffffffffffffffffffffffffffffffff1673ffffffffffffffffffffffffffffffffffffffff168152602001908152602001600020548211151515610ad657600080fd5b8273ffffffffffffffffffffffffffffffffffffffff163373ffffffffffffffffffffffffffffffffffffffff167fddf252ad1be2c89b69c2b068fc378daa952ba7f163c4a11628f55a4df523b3ef846040518082815260200191505060405180910390a36001905092915050565b6000600360008473ffffffffffffffffffffffffffffffffffffffff1673ffffffffffffffffffffffffffffffffffffffff16815260200190815260200160002060008373ffffffffffffffffffffffffffffffffffffffff1673ffffffffffffffffffffffffffffffffffffffff16815260200190815260200160002054905092915050565b6000600260003373ffffffffffffffffffffffffffffffffffffffff1673ffffffffffffffffffffffffffffffffffffffff16815260200190815260200160002081905550565b6000828211151515610c2157fe5b818303905092915050565b60008183019050828110151515610c3f57fe5b80905092915050565b60008183811515610c5557fe5b049050929150505600a165627a7a72305820951b656ce00ef1333d00d5be6c5d5c3130af68656ce6af58ac9e9508becd3f790029",
  "source": "pragma solidity ^0.4.24;\n\nimport \"openzeppelin-solidity/contracts/math/SafeMath.sol\";\nimport \"openzeppelin-solidity/contracts/token/ERC20/ERC20.sol\";\n\ncontract X3Token is ERC20 {\n  using SafeMath for uint;\n\n  uint256 rate = 10 ** 11;\n  uint supplies = 1000000;\n\n  event VibratingEvent(uint duration, uint8 strength);\n\n  mapping (address => uint) balances;\n  mapping (address => mapping (address => uint)) internal allowances;\n\n  function totalSupply() public view returns (uint) {\n      return supplies;\n  }\n\n  function balanceOf(address who) public view returns (uint) {\n      return balances[who];\n  }\n\n  function transfer(address to, uint amount)\n  public returns (bool)\n  {\n      require(amount <= balances[msg.sender]);\n\n      Transfer(msg.sender, to, amount);\n\n      return true;\n  }\n\n  function allowance(address owner, address spender)\n  public view returns (uint)\n  {\n      return allowances[owner][spender];\n  }\n\n  function transferFrom(address from, address to, uint amount)\n  public returns (bool)\n  {\n      require(to != address(0));\n      require(amount <= allowance(from, to));\n      require(amount <= balances[from]);\n\n      balances[from] = balances[from].sub(amount);\n      balances[to] = balances[to].add(amount);\n\n      allowances[from][msg.sender] = allowances[from][msg.sender].sub(amount);\n\n      Transfer(from, to, amount);\n\n      return true;\n  }\n\n  function approve(address spender, uint amount)\n  public returns (bool)\n  {\n      allowances[msg.sender][spender] = amount;\n\n      Approval(msg.sender, spender, amount);\n\n      return true;\n  }\n\n  function getPriceRange(uint strength) public pure returns (uint) {\n    if (strength > 230) {return 7;}\n    if (strength > 210) {return 6;}\n    if (strength > 190) {return 5;}\n    if (strength > 170) {return 4;}\n    if (strength > 150) {return 3;}\n    if (strength > 130) {return 2;}\n    return 1;\n  }\n\n  /// @author Phoomparin Mano\n  /// @notice Strength must be between 150 and 255,\n  ///         and Duration (msec) must be less than 20000.\n  /// @dev    Vibrator Server should listen for VibratingEvent\n  function sendHappiness(uint msec, uint8 strength) public {\n    uint cost = msec * getPriceRange(strength);\n  \n    require(msec <= 20000);\n    require(strength >= 130);\n    require(strength <= 255);\n    require(balanceOf(msg.sender) >= cost);\n    \n    balances[msg.sender] = balances[msg.sender].sub(cost);\n\n    VibratingEvent(msec, strength);\n  }\n\n  /// @dev 1 ether => 1M XTN\n  ///      0.01 ether => 10000 XTN\n  function buyToken() public payable {\n    uint256 amount = msg.value.div(rate);\n\n    balances[msg.sender] = balances[msg.sender].add(amount);\n  }\n\n  function destroyTokens() public {\n    balances[msg.sender] = 0;\n  }\n}",
  "sourcePath": "/Users/phoomparin/Projects/x3-app/contracts/X3Token.sol",
  "compiler": {
    "name": "solc",
    "version": "0.4.24+commit.e67f0147.Emscripten.clang"
  },
  "schemaVersion": "2.0.1",
  "updatedAt": "2018-08-25T17:56:41.914Z"
}