{
  "contractName": "X3Token",
  "abi": [
    {
      "anonymous": false,
      "inputs": [
        {
          "indexed": false,
          "name": "second",
          "type": "uint256"
        },
        {
          "indexed": false,
          "name": "strength",
          "type": "uint8"
        }
      ],
      "name": "VibratingEvent",
      "type": "event"
    },
    {
      "anonymous": false,
      "inputs": [
        {
          "indexed": true,
          "name": "owner",
          "type": "address"
        },
        {
          "indexed": true,
          "name": "spender",
          "type": "address"
        },
        {
          "indexed": false,
          "name": "value",
          "type": "uint256"
        }
      ],
      "name": "Approval",
      "type": "event"
    },
    {
      "anonymous": false,
      "inputs": [
        {
          "indexed": true,
          "name": "from",
          "type": "address"
        },
        {
          "indexed": true,
          "name": "to",
          "type": "address"
        },
        {
          "indexed": false,
          "name": "value",
          "type": "uint256"
        }
      ],
      "name": "Transfer",
      "type": "event"
    },
    {
      "constant": true,
      "inputs": [],
      "name": "totalSupply",
      "outputs": [
        {
          "name": "",
          "type": "uint256"
        }
      ],
      "payable": false,
      "stateMutability": "view",
      "type": "function"
    },
    {
      "constant": true,
      "inputs": [
        {
          "name": "who",
          "type": "address"
        }
      ],
      "name": "balanceOf",
      "outputs": [
        {
          "name": "",
          "type": "uint256"
        }
      ],
      "payable": false,
      "stateMutability": "view",
      "type": "function"
    },
    {
      "constant": false,
      "inputs": [
        {
          "name": "to",
          "type": "address"
        },
        {
          "name": "amount",
          "type": "uint256"
        }
      ],
      "name": "transfer",
      "outputs": [
        {
          "name": "",
          "type": "bool"
        }
      ],
      "payable": false,
      "stateMutability": "nonpayable",
      "type": "function"
    },
    {
      "constant": true,
      "inputs": [
        {
          "name": "owner",
          "type": "address"
        },
        {
          "name": "spender",
          "type": "address"
        }
      ],
      "name": "allowance",
      "outputs": [
        {
          "name": "",
          "type": "uint256"
        }
      ],
      "payable": false,
      "stateMutability": "view",
      "type": "function"
    },
    {
      "constant": false,
      "inputs": [
        {
          "name": "from",
          "type": "address"
        },
        {
          "name": "to",
          "type": "address"
        },
        {
          "name": "amount",
          "type": "uint256"
        }
      ],
      "name": "transferFrom",
      "outputs": [
        {
          "name": "",
          "type": "bool"
        }
      ],
      "payable": false,
      "stateMutability": "nonpayable",
      "type": "function"
    },
    {
      "constant": false,
      "inputs": [
        {
          "name": "spender",
          "type": "address"
        },
        {
          "name": "amount",
          "type": "uint256"
        }
      ],
      "name": "approve",
      "outputs": [
        {
          "name": "",
          "type": "bool"
        }
      ],
      "payable": false,
      "stateMutability": "nonpayable",
      "type": "function"
    },
    {
      "constant": false,
      "inputs": [
        {
          "name": "msec",
          "type": "uint256"
        },
        {
          "name": "strength",
          "type": "uint8"
        }
      ],
      "name": "sendHappiness",
      "outputs": [],
      "payable": false,
      "stateMutability": "nonpayable",
      "type": "function"
    },
    {
      "constant": false,
      "inputs": [],
      "name": "buyToken",
      "outputs": [],
      "payable": true,
      "stateMutability": "payable",
      "type": "function"
    },
    {
      "constant": false,
      "inputs": [],
      "name": "destroyTokens",
      "outputs": [],
      "payable": false,
      "stateMutability": "nonpayable",
      "type": "function"
    }
  ],
  "bytecode": "0x608060405264174876e800600055620f424060015534801561002057600080fd5b50610bd2806100306000396000f300608060405260043610610099576000357c0100000000000000000000000000000000000000000000000000000000900463ffffffff168063095ea7b31461009e57806318160ddd1461010357806323b872dd1461012e57806370a08231146101b35780638ac3273a1461020a578063a482171914610244578063a9059cbb1461024e578063dd62ed3e146102b3578063fa98cd881461032a575b600080fd5b3480156100aa57600080fd5b506100e9600480360381019080803573ffffffffffffffffffffffffffffffffffffffff16906020019092919080359060200190929190505050610341565b604051808215151515815260200191505060405180910390f35b34801561010f57600080fd5b50610118610433565b6040518082815260200191505060405180910390f35b34801561013a57600080fd5b50610199600480360381019080803573ffffffffffffffffffffffffffffffffffffffff169060200190929190803573ffffffffffffffffffffffffffffffffffffffff1690602001909291908035906020019092919050505061043d565b604051808215151515815260200191505060405180910390f35b3480156101bf57600080fd5b506101f4600480360381019080803573ffffffffffffffffffffffffffffffffffffffff169060200190929190505050610789565b6040518082815260200191505060405180910390f35b34801561021657600080fd5b5061024260048036038101908080359060200190929190803560ff1690602001909291905050506107d2565b005b61024c61091d565b005b34801561025a57600080fd5b50610299600480360381019080803573ffffffffffffffffffffffffffffffffffffffff169060200190929190803590602001909291905050506109ce565b604051808215151515815260200191505060405180910390f35b3480156102bf57600080fd5b50610314600480360381019080803573ffffffffffffffffffffffffffffffffffffffff169060200190929190803573ffffffffffffffffffffffffffffffffffffffff169060200190929190505050610a8d565b6040518082815260200191505060405180910390f35b34801561033657600080fd5b5061033f610b14565b005b600081600360003373ffffffffffffffffffffffffffffffffffffffff1673ffffffffffffffffffffffffffffffffffffffff16815260200190815260200160002060008573ffffffffffffffffffffffffffffffffffffffff1673ffffffffffffffffffffffffffffffffffffffff168152602001908152602001600020819055508273ffffffffffffffffffffffffffffffffffffffff163373ffffffffffffffffffffffffffffffffffffffff167f8c5be1e5ebec7d5bd14f71427d1e84f3dd0314c0f7b2291e5b200ac8c7c3b925846040518082815260200191505060405180910390a36001905092915050565b6000600154905090565b60008073ffffffffffffffffffffffffffffffffffffffff168373ffffffffffffffffffffffffffffffffffffffff161415151561047a57600080fd5b6104848484610a8d565b821115151561049257600080fd5b600260008573ffffffffffffffffffffffffffffffffffffffff1673ffffffffffffffffffffffffffffffffffffffff1681526020019081526020016000205482111515156104e057600080fd5b61053282600260008773ffffffffffffffffffffffffffffffffffffffff1673ffffffffffffffffffffffffffffffffffffffff16815260200190815260200160002054610b5b90919063ffffffff16565b600260008673ffffffffffffffffffffffffffffffffffffffff1673ffffffffffffffffffffffffffffffffffffffff168152602001908152602001600020819055506105c782600260008673ffffffffffffffffffffffffffffffffffffffff1673ffffffffffffffffffffffffffffffffffffffff16815260200190815260200160002054610b7490919063ffffffff16565b600260008573ffffffffffffffffffffffffffffffffffffffff1673ffffffffffffffffffffffffffffffffffffffff1681526020019081526020016000208190555061069982600360008773ffffffffffffffffffffffffffffffffffffffff1673ffffffffffffffffffffffffffffffffffffffff16815260200190815260200160002060003373ffffffffffffffffffffffffffffffffffffffff1673ffffffffffffffffffffffffffffffffffffffff16815260200190815260200160002054610b5b90919063ffffffff16565b600360008673ffffffffffffffffffffffffffffffffffffffff1673ffffffffffffffffffffffffffffffffffffffff16815260200190815260200160002060003373ffffffffffffffffffffffffffffffffffffffff1673ffffffffffffffffffffffffffffffffffffffff168152602001908152602001600020819055508273ffffffffffffffffffffffffffffffffffffffff168473ffffffffffffffffffffffffffffffffffffffff167fddf252ad1be2c89b69c2b068fc378daa952ba7f163c4a11628f55a4df523b3ef846040518082815260200191505060405180910390a3600190509392505050565b6000600260008373ffffffffffffffffffffffffffffffffffffffff1673ffffffffffffffffffffffffffffffffffffffff168152602001908152602001600020549050919050565b60008160ff166107ed6103e885610b9090919063ffffffff16565b029050614e20831115151561080157600080fd5b60968260ff161015151561081457600080fd5b60ff8260ff161115151561082757600080fd5b8061083133610789565b1015151561083e57600080fd5b61089081600260003373ffffffffffffffffffffffffffffffffffffffff1673ffffffffffffffffffffffffffffffffffffffff16815260200190815260200160002054610b5b90919063ffffffff16565b600260003373ffffffffffffffffffffffffffffffffffffffff1673ffffffffffffffffffffffffffffffffffffffff168152602001908152602001600020819055507f01ffed81164cd46725f5d4f4c6cfdf01e2c571810d23e4f00ba392b04eb26dce8383604051808381526020018260ff1660ff1681526020019250505060405180910390a1505050565b600061093460005434610b9090919063ffffffff16565b905061098881600260003373ffffffffffffffffffffffffffffffffffffffff1673ffffffffffffffffffffffffffffffffffffffff16815260200190815260200160002054610b7490919063ffffffff16565b600260003373ffffffffffffffffffffffffffffffffffffffff1673ffffffffffffffffffffffffffffffffffffffff1681526020019081526020016000208190555050565b6000600260003373ffffffffffffffffffffffffffffffffffffffff1673ffffffffffffffffffffffffffffffffffffffff168152602001908152602001600020548211151515610a1e57600080fd5b8273ffffffffffffffffffffffffffffffffffffffff163373ffffffffffffffffffffffffffffffffffffffff167fddf252ad1be2c89b69c2b068fc378daa952ba7f163c4a11628f55a4df523b3ef846040518082815260200191505060405180910390a36001905092915050565b6000600360008473ffffffffffffffffffffffffffffffffffffffff1673ffffffffffffffffffffffffffffffffffffffff16815260200190815260200160002060008373ffffffffffffffffffffffffffffffffffffffff1673ffffffffffffffffffffffffffffffffffffffff16815260200190815260200160002054905092915050565b6000600260003373ffffffffffffffffffffffffffffffffffffffff1673ffffffffffffffffffffffffffffffffffffffff16815260200190815260200160002081905550565b6000828211151515610b6957fe5b818303905092915050565b60008183019050828110151515610b8757fe5b80905092915050565b60008183811515610b9d57fe5b049050929150505600a165627a7a7230582039bf092878e58e1a519b62e850c38c7238aaca4a7506ec7b241b61d0be2f20500029",
  "source": "pragma solidity ^0.4.24;\n\nimport \"openzeppelin-solidity/contracts/math/SafeMath.sol\";\nimport \"openzeppelin-solidity/contracts/token/ERC20/ERC20.sol\";\n\ncontract X3Token is ERC20 {\n  using SafeMath for uint;\n\n  uint256 rate = 10 ** 11;\n  uint supplies = 1000000;\n\n  event VibratingEvent(uint second, uint8 strength);\n\n  mapping (address => uint) balances;\n  mapping (address => mapping (address => uint)) internal allowances;\n\n  function totalSupply() public view returns (uint) {\n      return supplies;\n  }\n\n  function balanceOf(address who) public view returns (uint) {\n      return balances[who];\n  }\n\n  function transfer(address to, uint amount)\n  public returns (bool)\n  {\n      require(amount <= balances[msg.sender]);\n\n      Transfer(msg.sender, to, amount);\n\n      return true;\n  }\n\n  function allowance(address owner, address spender)\n  public view returns (uint)\n  {\n      return allowances[owner][spender];\n  }\n\n  function transferFrom(address from, address to, uint amount)\n  public returns (bool)\n  {\n      require(to != address(0));\n      require(amount <= allowance(from, to));\n      require(amount <= balances[from]);\n\n      balances[from] = balances[from].sub(amount);\n      balances[to] = balances[to].add(amount);\n\n      allowances[from][msg.sender] = allowances[from][msg.sender].sub(amount);\n\n      Transfer(from, to, amount);\n\n      return true;\n  }\n\n  function approve(address spender, uint amount)\n  public returns (bool)\n  {\n      allowances[msg.sender][spender] = amount;\n\n      Approval(msg.sender, spender, amount);\n\n      return true;\n  }\n\n  /// @author Phoomparin Mano\n  /// @notice Strength must be between 150 and 255,\n  ///         and Duration (msec) must be less than 20000.\n  /// @dev    Vibrator Server should listen for VibratingEvent\n  function sendHappiness(uint msec, uint8 strength) public {\n    uint cost = msec.div(1000) * strength;\n  \n    require(msec <= 20000);\n    require(strength >= 150);\n    require(strength <= 255);\n    require(balanceOf(msg.sender) >= cost);\n    \n    balances[msg.sender] = balances[msg.sender].sub(cost);\n\n    VibratingEvent(msec, strength);\n  }\n\n  /// @dev 1 ether => 1M XTN\n  ///      0.01 ether => 10000 XTN\n  function buyToken() public payable {\n    uint256 amount = msg.value.div(rate);\n\n    balances[msg.sender] = balances[msg.sender].add(amount);\n  }\n\n  function destroyTokens() public {\n    balances[msg.sender] = 0;\n  }\n}",
  "sourcePath": "/Users/phoomparin/Projects/x3-app/contracts/X3Token.sol",
  "compiler": {
    "name": "solc",
    "version": "0.4.24+commit.e67f0147.Emscripten.clang"
  },
  "schemaVersion": "2.0.1",
  "updatedAt": "2018-08-25T14:22:03.974Z"
}